{
  "contractName": "Mortgage",
  "abi": [
    {
      "inputs": [],
      "stateMutability": "nonpayable",
      "type": "constructor"
    },
    {
      "anonymous": false,
      "inputs": [
        {
          "indexed": false,
          "internalType": "uint256",
          "name": "id",
          "type": "uint256"
        }
      ],
      "name": "MortgageApproved",
      "type": "event"
    },
    {
      "anonymous": false,
      "inputs": [
        {
          "indexed": false,
          "internalType": "uint256",
          "name": "id",
          "type": "uint256"
        },
        {
          "indexed": false,
          "internalType": "address",
          "name": "borrower",
          "type": "address"
        },
        {
          "indexed": false,
          "internalType": "uint256",
          "name": "amount",
          "type": "uint256"
        }
      ],
      "name": "MortgageCreated",
      "type": "event"
    },
    {
      "anonymous": false,
      "inputs": [
        {
          "indexed": false,
          "internalType": "uint256",
          "name": "id",
          "type": "uint256"
        },
        {
          "indexed": false,
          "internalType": "uint256",
          "name": "amount",
          "type": "uint256"
        }
      ],
      "name": "MortgagePaid",
      "type": "event"
    },
    {
      "inputs": [],
      "name": "bank",
      "outputs": [
        {
          "internalType": "address",
          "name": "",
          "type": "address"
        }
      ],
      "stateMutability": "view",
      "type": "function",
      "constant": true
    },
    {
      "inputs": [],
      "name": "mortgageCount",
      "outputs": [
        {
          "internalType": "uint256",
          "name": "",
          "type": "uint256"
        }
      ],
      "stateMutability": "view",
      "type": "function",
      "constant": true
    },
    {
      "inputs": [
        {
          "internalType": "uint256",
          "name": "",
          "type": "uint256"
        }
      ],
      "name": "mortgages",
      "outputs": [
        {
          "internalType": "address",
          "name": "borrower",
          "type": "address"
        },
        {
          "internalType": "uint256",
          "name": "amount",
          "type": "uint256"
        },
        {
          "internalType": "uint256",
          "name": "paidAmount",
          "type": "uint256"
        },
        {
          "internalType": "bool",
          "name": "approved",
          "type": "bool"
        }
      ],
      "stateMutability": "view",
      "type": "function",
      "constant": true
    },
    {
      "inputs": [
        {
          "internalType": "uint256",
          "name": "_amount",
          "type": "uint256"
        }
      ],
      "name": "createMortgage",
      "outputs": [],
      "stateMutability": "nonpayable",
      "type": "function"
    },
    {
      "inputs": [
        {
          "internalType": "uint256",
          "name": "_id",
          "type": "uint256"
        }
      ],
      "name": "approveMortgage",
      "outputs": [],
      "stateMutability": "nonpayable",
      "type": "function"
    },
    {
      "inputs": [
        {
          "internalType": "uint256",
          "name": "_id",
          "type": "uint256"
        },
        {
          "internalType": "uint256",
          "name": "_amount",
          "type": "uint256"
        }
      ],
      "name": "makePayment",
      "outputs": [],
      "stateMutability": "nonpayable",
      "type": "function"
    },
    {
      "inputs": [
        {
          "internalType": "uint256",
          "name": "_id",
          "type": "uint256"
        }
      ],
      "name": "getMortgage",
      "outputs": [
        {
          "internalType": "address",
          "name": "",
          "type": "address"
        },
        {
          "internalType": "uint256",
          "name": "",
          "type": "uint256"
        },
        {
          "internalType": "uint256",
          "name": "",
          "type": "uint256"
        },
        {
          "internalType": "bool",
          "name": "",
          "type": "bool"
        }
      ],
      "stateMutability": "view",
      "type": "function",
      "constant": true
    }
  ],
  "bytecode": "0x608060405234801561000f575f80fd5b503360025f6101000a81548173ffffffffffffffffffffffffffffffffffffffff021916908373ffffffffffffffffffffffffffffffffffffffff160217905550610b9c8061005d5f395ff3fe608060405234801561000f575f80fd5b506004361061007b575f3560e01c806376cdb03b1161005957806376cdb03b146101015780638238c9e91461011f578063a7b0f9061461013b578063d390f974146101595761007b565b80630c82f3151461007f578063446b13f4146100b257806375861f27146100ce575b5f80fd5b61009960048036038101906100949190610705565b610175565b6040516100a99493929190610798565b60405180910390f35b6100cc60048036038101906100c79190610705565b61023c565b005b6100e860048036038101906100e39190610705565b610390565b6040516100f89493929190610798565b60405180910390f35b6101096103e6565b60405161011691906107db565b60405180910390f35b61013960048036038101906101349190610705565b61040b565b005b610143610527565b60405161015091906107f4565b60405180910390f35b610173600480360381019061016e919061080d565b61052d565b005b5f805f805f805f8781526020019081526020015f206040518060800160405290815f82015f9054906101000a900473ffffffffffffffffffffffffffffffffffffffff1673ffffffffffffffffffffffffffffffffffffffff1673ffffffffffffffffffffffffffffffffffffffff1681526020016001820154815260200160028201548152602001600382015f9054906101000a900460ff1615151515815250509050805f01518160200151826040015183606001519450945094509450509193509193565b60025f9054906101000a900473ffffffffffffffffffffffffffffffffffffffff1673ffffffffffffffffffffffffffffffffffffffff163373ffffffffffffffffffffffffffffffffffffffff16146102cb576040517f08c379a00000000000000000000000000000000000000000000000000000000081526004016102c2906108a5565b60405180910390fd5b5f808281526020019081526020015f206003015f9054906101000a900460ff161561032b576040517f08c379a00000000000000000000000000000000000000000000000000000000081526004016103229061090d565b60405180910390fd5b60015f808381526020019081526020015f206003015f6101000a81548160ff0219169083151502179055507fa3f5a5ae307d1d6de850c55dd09d8f9e0904661bc21573d18b228a7c80c2c78c8160405161038591906107f4565b60405180910390a150565b5f602052805f5260405f205f91509050805f015f9054906101000a900473ffffffffffffffffffffffffffffffffffffffff1690806001015490806002015490806003015f9054906101000a900460ff16905084565b60025f9054906101000a900473ffffffffffffffffffffffffffffffffffffffff1681565b60015f81548092919061041d90610958565b919050555060405180608001604052803373ffffffffffffffffffffffffffffffffffffffff1681526020018281526020015f81526020015f15158152505f8060015481526020019081526020015f205f820151815f015f6101000a81548173ffffffffffffffffffffffffffffffffffffffff021916908373ffffffffffffffffffffffffffffffffffffffff16021790555060208201518160010155604082015181600201556060820151816003015f6101000a81548160ff0219169083151502179055509050507f5e15935ea66b99f5ef7df48279c7768fcd3ac8aad6044224fb59541df7899016600154338360405161051c9392919061099f565b60405180910390a150565b60015481565b5f805f8481526020019081526020015f2090503373ffffffffffffffffffffffffffffffffffffffff16815f015f9054906101000a900473ffffffffffffffffffffffffffffffffffffffff1673ffffffffffffffffffffffffffffffffffffffff16146105d0576040517f08c379a00000000000000000000000000000000000000000000000000000000081526004016105c790610a1e565b60405180910390fd5b806003015f9054906101000a900460ff16610620576040517f08c379a000000000000000000000000000000000000000000000000000000000815260040161061790610a86565b60405180910390fd5b80600101548282600201546106359190610aa4565b1115610676576040517f08c379a000000000000000000000000000000000000000000000000000000000815260040161066d90610b21565b60405180910390fd5b81816002015f8282546106899190610aa4565b925050819055507f03cd27bd49997783d167b3291d87d362b4b15000e4f73fbd5e40c8e24bd4f58a83836040516106c1929190610b3f565b60405180910390a1505050565b5f80fd5b5f819050919050565b6106e4816106d2565b81146106ee575f80fd5b50565b5f813590506106ff816106db565b92915050565b5f6020828403121561071a576107196106ce565b5b5f610727848285016106f1565b91505092915050565b5f73ffffffffffffffffffffffffffffffffffffffff82169050919050565b5f61075982610730565b9050919050565b6107698161074f565b82525050565b610778816106d2565b82525050565b5f8115159050919050565b6107928161077e565b82525050565b5f6080820190506107ab5f830187610760565b6107b8602083018661076f565b6107c5604083018561076f565b6107d26060830184610789565b95945050505050565b5f6020820190506107ee5f830184610760565b92915050565b5f6020820190506108075f83018461076f565b92915050565b5f8060408385031215610823576108226106ce565b5b5f610830858286016106f1565b9250506020610841858286016106f1565b9150509250929050565b5f82825260208201905092915050565b7f4f6e6c792062616e6b2063616e20617070726f766500000000000000000000005f82015250565b5f61088f60158361084b565b915061089a8261085b565b602082019050919050565b5f6020820190508181035f8301526108bc81610883565b9050919050565b7f416c726561647920617070726f766564000000000000000000000000000000005f82015250565b5f6108f760108361084b565b9150610902826108c3565b602082019050919050565b5f6020820190508181035f830152610924816108eb565b9050919050565b7f4e487b71000000000000000000000000000000000000000000000000000000005f52601160045260245ffd5b5f610962826106d2565b91507fffffffffffffffffffffffffffffffffffffffffffffffffffffffffffffffff82036109945761099361092b565b5b600182019050919050565b5f6060820190506109b25f83018661076f565b6109bf6020830185610760565b6109cc604083018461076f565b949350505050565b7f4f6e6c7920626f72726f7765722063616e2070617900000000000000000000005f82015250565b5f610a0860158361084b565b9150610a13826109d4565b602082019050919050565b5f6020820190508181035f830152610a35816109fc565b9050919050565b7f4d6f727467616765206e6f7420617070726f76656400000000000000000000005f82015250565b5f610a7060158361084b565b9150610a7b82610a3c565b602082019050919050565b5f6020820190508181035f830152610a9d81610a64565b9050919050565b5f610aae826106d2565b9150610ab9836106d2565b9250828201905080821115610ad157610ad061092b565b5b92915050565b7f4578636565647320616d6f756e740000000000000000000000000000000000005f82015250565b5f610b0b600e8361084b565b9150610b1682610ad7565b602082019050919050565b5f6020820190508181035f830152610b3881610aff565b9050919050565b5f604082019050610b525f83018561076f565b610b5f602083018461076f565b939250505056fea2646970667358221220df330f8db23f29a681e9942e826f312c2b5408ac1487868f8f442828402a4c6a64736f6c63430008140033",
  "immutableReferences": {},
  "source": "// SPDX-License-Identifier: MIT\r\npragma solidity ^0.8.0;\r\n\r\ncontract Mortgage {\r\n    struct MortgageInfo {\r\n        address borrower;\r\n        uint256 amount;\r\n        uint256 paidAmount;\r\n        bool approved;\r\n    }\r\n\r\n    mapping(uint256 => MortgageInfo) public mortgages;\r\n    uint256 public mortgageCount;\r\n    address public bank;\r\n\r\n    event MortgageCreated(uint256 id, address borrower, uint256 amount);\r\n    event MortgageApproved(uint256 id);\r\n    event MortgagePaid(uint256 id, uint256 amount);\r\n\r\n    modifier onlyBank() {\r\n        require(msg.sender == bank, \"Only bank can approve\");\r\n        _;\r\n    }\r\n\r\n    constructor() {\r\n        bank = msg.sender;\r\n    }\r\n\r\n    function createMortgage(uint256 _amount) public {\r\n        mortgageCount++;\r\n        mortgages[mortgageCount] = MortgageInfo(msg.sender, _amount, 0, false);\r\n        emit MortgageCreated(mortgageCount, msg.sender, _amount);\r\n    }\r\n\r\n    function approveMortgage(uint256 _id) public onlyBank {\r\n        require(!mortgages[_id].approved, \"Already approved\");\r\n        mortgages[_id].approved = true;\r\n        emit MortgageApproved(_id);\r\n    }\r\n\r\n    function makePayment(uint256 _id, uint256 _amount) public {\r\n        MortgageInfo storage m = mortgages[_id];\r\n        require(m.borrower == msg.sender, \"Only borrower can pay\");\r\n        require(m.approved, \"Mortgage not approved\");\r\n        require(m.paidAmount + _amount <= m.amount, \"Exceeds amount\");\r\n\r\n        m.paidAmount += _amount;\r\n        emit MortgagePaid(_id, _amount);\r\n    }\r\n\r\n    function getMortgage(uint256 _id)\r\n        public\r\n        view\r\n        returns (address, uint256, uint256, bool)\r\n    {\r\n        MortgageInfo memory m = mortgages[_id];\r\n        return (m.borrower, m.amount, m.paidAmount, m.approved);\r\n    }\r\n}\r\n",
  "sourcePath": "C:\\Mehul\\ALLmyCODINGstuff\\CollegeProjects\\mortgage-blockchain-dapp\\contracts\\Mortgage.sol",
  "compiler": {
    "name": "solc",
    "version": "0.8.20+commit.a1b79de6.Emscripten.clang"
  },
  "schemaVersion": "3.4.16",
  "updatedAt": "2025-10-26T13:18:21.053Z",
  "networkType": "ethereum",
  "devdoc": {
    "kind": "dev",
    "methods": {},
    "version": 1
  },
  "userdoc": {
    "kind": "user",
    "methods": {},
    "version": 1
  }
}